{
  "contractName": "DrawingCollectible",
  "abi": [
    {
      "inputs": [],
      "stateMutability": "nonpayable",
      "type": "constructor"
    },
    {
      "anonymous": false,
      "inputs": [
        {
          "indexed": true,
          "internalType": "address",
          "name": "owner",
          "type": "address"
        },
        {
          "indexed": true,
          "internalType": "address",
          "name": "approved",
          "type": "address"
        },
        {
          "indexed": true,
          "internalType": "uint256",
          "name": "tokenId",
          "type": "uint256"
        }
      ],
      "name": "Approval",
      "type": "event"
    },
    {
      "anonymous": false,
      "inputs": [
        {
          "indexed": true,
          "internalType": "address",
          "name": "owner",
          "type": "address"
        },
        {
          "indexed": true,
          "internalType": "address",
          "name": "operator",
          "type": "address"
        },
        {
          "indexed": false,
          "internalType": "bool",
          "name": "approved",
          "type": "bool"
        }
      ],
      "name": "ApprovalForAll",
      "type": "event"
    },
    {
      "anonymous": false,
      "inputs": [
        {
          "indexed": true,
          "internalType": "address",
          "name": "from",
          "type": "address"
        },
        {
          "indexed": true,
          "internalType": "address",
          "name": "to",
          "type": "address"
        },
        {
          "indexed": true,
          "internalType": "uint256",
          "name": "tokenId",
          "type": "uint256"
        }
      ],
      "name": "Transfer",
      "type": "event"
    },
    {
      "inputs": [
        {
          "internalType": "address",
          "name": "to",
          "type": "address"
        },
        {
          "internalType": "uint256",
          "name": "tokenId",
          "type": "uint256"
        }
      ],
      "name": "approve",
      "outputs": [],
      "stateMutability": "nonpayable",
      "type": "function"
    },
    {
      "inputs": [
        {
          "internalType": "address",
          "name": "owner",
          "type": "address"
        }
      ],
      "name": "balanceOf",
      "outputs": [
        {
          "internalType": "uint256",
          "name": "",
          "type": "uint256"
        }
      ],
      "stateMutability": "view",
      "type": "function",
      "constant": true
    },
    {
      "inputs": [],
      "name": "baseURI",
      "outputs": [
        {
          "internalType": "string",
          "name": "",
          "type": "string"
        }
      ],
      "stateMutability": "view",
      "type": "function",
      "constant": true
    },
    {
      "inputs": [
        {
          "internalType": "uint256",
          "name": "tokenId",
          "type": "uint256"
        }
      ],
      "name": "getApproved",
      "outputs": [
        {
          "internalType": "address",
          "name": "",
          "type": "address"
        }
      ],
      "stateMutability": "view",
      "type": "function",
      "constant": true
    },
    {
      "inputs": [
        {
          "internalType": "address",
          "name": "owner",
          "type": "address"
        },
        {
          "internalType": "address",
          "name": "operator",
          "type": "address"
        }
      ],
      "name": "isApprovedForAll",
      "outputs": [
        {
          "internalType": "bool",
          "name": "",
          "type": "bool"
        }
      ],
      "stateMutability": "view",
      "type": "function",
      "constant": true
    },
    {
      "inputs": [],
      "name": "name",
      "outputs": [
        {
          "internalType": "string",
          "name": "",
          "type": "string"
        }
      ],
      "stateMutability": "view",
      "type": "function",
      "constant": true
    },
    {
      "inputs": [
        {
          "internalType": "uint256",
          "name": "tokenId",
          "type": "uint256"
        }
      ],
      "name": "ownerOf",
      "outputs": [
        {
          "internalType": "address",
          "name": "",
          "type": "address"
        }
      ],
      "stateMutability": "view",
      "type": "function",
      "constant": true
    },
    {
      "inputs": [
        {
          "internalType": "address",
          "name": "from",
          "type": "address"
        },
        {
          "internalType": "address",
          "name": "to",
          "type": "address"
        },
        {
          "internalType": "uint256",
          "name": "tokenId",
          "type": "uint256"
        }
      ],
      "name": "safeTransferFrom",
      "outputs": [],
      "stateMutability": "nonpayable",
      "type": "function"
    },
    {
      "inputs": [
        {
          "internalType": "address",
          "name": "from",
          "type": "address"
        },
        {
          "internalType": "address",
          "name": "to",
          "type": "address"
        },
        {
          "internalType": "uint256",
          "name": "tokenId",
          "type": "uint256"
        },
        {
          "internalType": "bytes",
          "name": "_data",
          "type": "bytes"
        }
      ],
      "name": "safeTransferFrom",
      "outputs": [],
      "stateMutability": "nonpayable",
      "type": "function"
    },
    {
      "inputs": [
        {
          "internalType": "address",
          "name": "operator",
          "type": "address"
        },
        {
          "internalType": "bool",
          "name": "approved",
          "type": "bool"
        }
      ],
      "name": "setApprovalForAll",
      "outputs": [],
      "stateMutability": "nonpayable",
      "type": "function"
    },
    {
      "inputs": [
        {
          "internalType": "bytes4",
          "name": "interfaceId",
          "type": "bytes4"
        }
      ],
      "name": "supportsInterface",
      "outputs": [
        {
          "internalType": "bool",
          "name": "",
          "type": "bool"
        }
      ],
      "stateMutability": "view",
      "type": "function",
      "constant": true
    },
    {
      "inputs": [],
      "name": "symbol",
      "outputs": [
        {
          "internalType": "string",
          "name": "",
          "type": "string"
        }
      ],
      "stateMutability": "view",
      "type": "function",
      "constant": true
    },
    {
      "inputs": [
        {
          "internalType": "uint256",
          "name": "index",
          "type": "uint256"
        }
      ],
      "name": "tokenByIndex",
      "outputs": [
        {
          "internalType": "uint256",
          "name": "",
          "type": "uint256"
        }
      ],
      "stateMutability": "view",
      "type": "function",
      "constant": true
    },
    {
      "inputs": [],
      "name": "tokenCounter",
      "outputs": [
        {
          "internalType": "uint256",
          "name": "",
          "type": "uint256"
        }
      ],
      "stateMutability": "view",
      "type": "function",
      "constant": true
    },
    {
      "inputs": [
        {
          "internalType": "address",
          "name": "owner",
          "type": "address"
        },
        {
          "internalType": "uint256",
          "name": "index",
          "type": "uint256"
        }
      ],
      "name": "tokenOfOwnerByIndex",
      "outputs": [
        {
          "internalType": "uint256",
          "name": "",
          "type": "uint256"
        }
      ],
      "stateMutability": "view",
      "type": "function",
      "constant": true
    },
    {
      "inputs": [
        {
          "internalType": "uint256",
          "name": "tokenId",
          "type": "uint256"
        }
      ],
      "name": "tokenURI",
      "outputs": [
        {
          "internalType": "string",
          "name": "",
          "type": "string"
        }
      ],
      "stateMutability": "view",
      "type": "function",
      "constant": true
    },
    {
      "inputs": [],
      "name": "totalSupply",
      "outputs": [
        {
          "internalType": "uint256",
          "name": "",
          "type": "uint256"
        }
      ],
      "stateMutability": "view",
      "type": "function",
      "constant": true
    },
    {
      "inputs": [
        {
          "internalType": "address",
          "name": "from",
          "type": "address"
        },
        {
          "internalType": "address",
          "name": "to",
          "type": "address"
        },
        {
          "internalType": "uint256",
          "name": "tokenId",
          "type": "uint256"
        }
      ],
      "name": "transferFrom",
      "outputs": [],
      "stateMutability": "nonpayable",
      "type": "function"
    },
    {
      "inputs": [
        {
          "internalType": "string",
          "name": "tokenURI",
          "type": "string"
        }
      ],
      "name": "createCollectible",
      "outputs": [
        {
          "internalType": "uint256",
          "name": "",
          "type": "uint256"
        }
      ],
      "stateMutability": "nonpayable",
      "type": "function"
    }
  ],
  "bytecode": "0x60806040523480156200001157600080fd5b506040518060400160405280600c81526020017f48657861676f6e616c4e465400000000000000000000000000000000000000008152506040518060400160405280600681526020017f4845584e46540000000000000000000000000000000000000000000000000000815250620000966301ffc9a760e01b6200012060201b60201c565b8160069080519060200190620000ae92919062000229565b508060079080519060200190620000c792919062000229565b50620000e06380ac58cd60e01b6200012060201b60201c565b620000f8635b5e139f60e01b6200012060201b60201c565b6200011063780e9d6360e01b6200012060201b60201c565b50506000600a81905550620002d8565b63ffffffff60e01b817bffffffffffffffffffffffffffffffffffffffffffffffffffffffff19161415620001bd576040517f08c379a000000000000000000000000000000000000000000000000000000000815260040180806020018281038252601c8152602001807f4552433136353a20696e76616c696420696e746572666163652069640000000081525060200191505060405180910390fd5b6001600080837bffffffffffffffffffffffffffffffffffffffffffffffffffffffff19167bffffffffffffffffffffffffffffffffffffffffffffffffffffffff1916815260200190815260200160002060006101000a81548160ff02191690831515021790555050565b828054600181600116156101000203166002900490600052602060002090601f016020900481019282601f106200026c57805160ff19168380011785556200029d565b828001600101855582156200029d579182015b828111156200029c5782518255916020019190600101906200027f565b5b509050620002ac9190620002b0565b5090565b620002d591905b80821115620002d1576000816000905550600101620002b7565b5090565b90565b612c9e80620002e86000396000f3fe608060405234801561001057600080fd5b50600436106101215760003560e01c80634f6ccce7116100ad578063a22cb46511610071578063a22cb46514610703578063b88d4fde14610753578063c87b56dd14610858578063d082e381146108ff578063e985e9c51461091d57610121565b80634f6ccce7146104f55780636352211e146105375780636c0360eb146105a557806370a082311461062857806395d89b411461068057610121565b806318160ddd116100f457806318160ddd146102ca57806323b872dd146102e85780632f745c591461035657806331f1f3c3146103b857806342842e0e1461048757610121565b806301ffc9a71461012657806306fdde031461018b578063081812fc1461020e578063095ea7b31461027c575b600080fd5b6101716004803603602081101561013c57600080fd5b8101908080357bffffffffffffffffffffffffffffffffffffffffffffffffffffffff19169060200190929190505050610999565b604051808215151515815260200191505060405180910390f35b610193610a00565b6040518080602001828103825283818151815260200191508051906020019080838360005b838110156101d35780820151818401526020810190506101b8565b50505050905090810190601f1680156102005780820380516001836020036101000a031916815260200191505b509250505060405180910390f35b61023a6004803603602081101561022457600080fd5b8101908080359060200190929190505050610aa2565b604051808273ffffffffffffffffffffffffffffffffffffffff1673ffffffffffffffffffffffffffffffffffffffff16815260200191505060405180910390f35b6102c86004803603604081101561029257600080fd5b81019080803573ffffffffffffffffffffffffffffffffffffffff16906020019092919080359060200190929190505050610b3d565b005b6102d2610c81565b6040518082815260200191505060405180910390f35b610354600480360360608110156102fe57600080fd5b81019080803573ffffffffffffffffffffffffffffffffffffffff169060200190929190803573ffffffffffffffffffffffffffffffffffffffff16906020019092919080359060200190929190505050610c92565b005b6103a26004803603604081101561036c57600080fd5b81019080803573ffffffffffffffffffffffffffffffffffffffff16906020019092919080359060200190929190505050610d08565b6040518082815260200191505060405180910390f35b610471600480360360208110156103ce57600080fd5b81019080803590602001906401000000008111156103eb57600080fd5b8201836020820111156103fd57600080fd5b8035906020019184600183028401116401000000008311171561041f57600080fd5b91908080601f016020809104026020016040519081016040528093929190818152602001838380828437600081840152601f19601f820116905080830192505050505050509192919290505050610d63565b6040518082815260200191505060405180910390f35b6104f36004803603606081101561049d57600080fd5b81019080803573ffffffffffffffffffffffffffffffffffffffff169060200190929190803573ffffffffffffffffffffffffffffffffffffffff16906020019092919080359060200190929190505050610d94565b005b6105216004803603602081101561050b57600080fd5b8101908080359060200190929190505050610db4565b6040518082815260200191505060405180910390f35b6105636004803603602081101561054d57600080fd5b8101908080359060200190929190505050610dd7565b604051808273ffffffffffffffffffffffffffffffffffffffff1673ffffffffffffffffffffffffffffffffffffffff16815260200191505060405180910390f35b6105ad610e0e565b6040518080602001828103825283818151815260200191508051906020019080838360005b838110156105ed5780820151818401526020810190506105d2565b50505050905090810190601f16801561061a5780820380516001836020036101000a031916815260200191505b509250505060405180910390f35b61066a6004803603602081101561063e57600080fd5b81019080803573ffffffffffffffffffffffffffffffffffffffff169060200190929190505050610eb0565b6040518082815260200191505060405180910390f35b610688610f85565b6040518080602001828103825283818151815260200191508051906020019080838360005b838110156106c85780820151818401526020810190506106ad565b50505050905090810190601f1680156106f55780820380516001836020036101000a031916815260200191505b509250505060405180910390f35b6107516004803603604081101561071957600080fd5b81019080803573ffffffffffffffffffffffffffffffffffffffff169060200190929190803515159060200190929190505050611027565b005b6108566004803603608081101561076957600080fd5b81019080803573ffffffffffffffffffffffffffffffffffffffff169060200190929190803573ffffffffffffffffffffffffffffffffffffffff16906020019092919080359060200190929190803590602001906401000000008111156107d057600080fd5b8201836020820111156107e257600080fd5b8035906020019184600183028401116401000000008311171561080457600080fd5b91908080601f016020809104026020016040519081016040528093929190818152602001838380828437600081840152601f19601f8201169050808301925050505050505091929192905050506111df565b005b6108846004803603602081101561086e57600080fd5b8101908080359060200190929190505050611257565b6040518080602001828103825283818151815260200191508051906020019080838360005b838110156108c45780820151818401526020810190506108a9565b50505050905090810190601f1680156108f15780820380516001836020036101000a031916815260200191505b509250505060405180910390f35b610907611528565b6040518082815260200191505060405180910390f35b61097f6004803603604081101561093357600080fd5b81019080803573ffffffffffffffffffffffffffffffffffffffff169060200190929190803573ffffffffffffffffffffffffffffffffffffffff16906020019092919050505061152e565b604051808215151515815260200191505060405180910390f35b6000806000837bffffffffffffffffffffffffffffffffffffffffffffffffffffffff19167bffffffffffffffffffffffffffffffffffffffffffffffffffffffff1916815260200190815260200160002060009054906101000a900460ff169050919050565b606060068054600181600116156101000203166002900480601f016020809104026020016040519081016040528092919081815260200182805460018160011615610100020316600290048015610a985780601f10610a6d57610100808354040283529160200191610a98565b820191906000526020600020905b815481529060010190602001808311610a7b57829003601f168201915b5050505050905090565b6000610aad826115c2565b610b02576040517f08c379a000000000000000000000000000000000000000000000000000000000815260040180806020018281038252602c815260200180612b67602c913960400191505060405180910390fd5b6004600083815260200190815260200160002060009054906101000a900473ffffffffffffffffffffffffffffffffffffffff169050919050565b6000610b4882610dd7565b90508073ffffffffffffffffffffffffffffffffffffffff168373ffffffffffffffffffffffffffffffffffffffff161415610bcf576040517f08c379a0000000000000000000000000000000000000000000000000000000008152600401808060200182810382526021815260200180612c176021913960400191505060405180910390fd5b8073ffffffffffffffffffffffffffffffffffffffff16610bee6115df565b73ffffffffffffffffffffffffffffffffffffffff161480610c1d5750610c1c81610c176115df565b61152e565b5b610c72576040517f08c379a0000000000000000000000000000000000000000000000000000000008152600401808060200182810382526038815260200180612aba6038913960400191505060405180910390fd5b610c7c83836115e7565b505050565b6000610c8d60026116a0565b905090565b610ca3610c9d6115df565b826116b5565b610cf8576040517f08c379a0000000000000000000000000000000000000000000000000000000008152600401808060200182810382526031815260200180612c386031913960400191505060405180910390fd5b610d038383836117a9565b505050565b6000610d5b82600160008673ffffffffffffffffffffffffffffffffffffffff1673ffffffffffffffffffffffffffffffffffffffff1681526020019081526020016000206119ec90919063ffffffff16565b905092915050565b600080600a549050610d753382611a06565b610d7f8184611a24565b6001600a5401600a8190555080915050919050565b610daf838383604051806020016040528060008152506111df565b505050565b600080610dcb836002611aae90919063ffffffff16565b50905080915050919050565b6000610e0782604051806060016040528060298152602001612b1c602991396002611add9092919063ffffffff16565b9050919050565b606060098054600181600116156101000203166002900480601f016020809104026020016040519081016040528092919081815260200182805460018160011615610100020316600290048015610ea65780601f10610e7b57610100808354040283529160200191610ea6565b820191906000526020600020905b815481529060010190602001808311610e8957829003601f168201915b5050505050905090565b60008073ffffffffffffffffffffffffffffffffffffffff168273ffffffffffffffffffffffffffffffffffffffff161415610f37576040517f08c379a000000000000000000000000000000000000000000000000000000000815260040180806020018281038252602a815260200180612af2602a913960400191505060405180910390fd5b610f7e600160008473ffffffffffffffffffffffffffffffffffffffff1673ffffffffffffffffffffffffffffffffffffffff168152602001908152602001600020611afc565b9050919050565b606060078054600181600116156101000203166002900480601f01602080910402602001604051908101604052809291908181526020018280546001816001161561010002031660029004801561101d5780601f10610ff25761010080835404028352916020019161101d565b820191906000526020600020905b81548152906001019060200180831161100057829003601f168201915b5050505050905090565b61102f6115df565b73ffffffffffffffffffffffffffffffffffffffff168273ffffffffffffffffffffffffffffffffffffffff1614156110d0576040517f08c379a00000000000000000000000000000000000000000000000000000000081526004018080602001828103825260198152602001807f4552433732313a20617070726f766520746f2063616c6c65720000000000000081525060200191505060405180910390fd5b80600560006110dd6115df565b73ffffffffffffffffffffffffffffffffffffffff1673ffffffffffffffffffffffffffffffffffffffff16815260200190815260200160002060008473ffffffffffffffffffffffffffffffffffffffff1673ffffffffffffffffffffffffffffffffffffffff16815260200190815260200160002060006101000a81548160ff0219169083151502179055508173ffffffffffffffffffffffffffffffffffffffff1661118a6115df565b73ffffffffffffffffffffffffffffffffffffffff167f17307eab39ab6107e8899845ad3d59bd9653f200f220920489ca2b5937696c3183604051808215151515815260200191505060405180910390a35050565b6111f06111ea6115df565b836116b5565b611245576040517f08c379a0000000000000000000000000000000000000000000000000000000008152600401808060200182810382526031815260200180612c386031913960400191505060405180910390fd5b61125184848484611b11565b50505050565b6060611262826115c2565b6112b7576040517f08c379a000000000000000000000000000000000000000000000000000000000815260040180806020018281038252602f815260200180612be8602f913960400191505060405180910390fd5b6060600860008481526020019081526020016000208054600181600116156101000203166002900480601f0160208091040260200160405190810160405280929190818152602001828054600181600116156101000203166002900480156113605780601f1061133557610100808354040283529160200191611360565b820191906000526020600020905b81548152906001019060200180831161134357829003601f168201915b505050505090506060611371610e0e565b9050600081511415611387578192505050611523565b6000825111156114585780826040516020018083805190602001908083835b602083106113c957805182526020820191506020810190506020830392506113a6565b6001836020036101000a03801982511681845116808217855250505050505090500182805190602001908083835b6020831061141a57805182526020820191506020810190506020830392506113f7565b6001836020036101000a0380198251168184511680821785525050505050509050019250505060405160208183030381529060405292505050611523565b8061146285611b83565b6040516020018083805190602001908083835b602083106114985780518252602082019150602081019050602083039250611475565b6001836020036101000a03801982511681845116808217855250505050505090500182805190602001908083835b602083106114e957805182526020820191506020810190506020830392506114c6565b6001836020036101000a03801982511681845116808217855250505050505090500192505050604051602081830303815290604052925050505b919050565b600a5481565b6000600560008473ffffffffffffffffffffffffffffffffffffffff1673ffffffffffffffffffffffffffffffffffffffff16815260200190815260200160002060008373ffffffffffffffffffffffffffffffffffffffff1673ffffffffffffffffffffffffffffffffffffffff16815260200190815260200160002060009054906101000a900460ff16905092915050565b60006115d8826002611cca90919063ffffffff16565b9050919050565b600033905090565b816004600083815260200190815260200160002060006101000a81548173ffffffffffffffffffffffffffffffffffffffff021916908373ffffffffffffffffffffffffffffffffffffffff160217905550808273ffffffffffffffffffffffffffffffffffffffff1661165a83610dd7565b73ffffffffffffffffffffffffffffffffffffffff167f8c5be1e5ebec7d5bd14f71427d1e84f3dd0314c0f7b2291e5b200ac8c7c3b92560405160405180910390a45050565b60006116ae82600001611ce4565b9050919050565b60006116c0826115c2565b611715576040517f08c379a000000000000000000000000000000000000000000000000000000000815260040180806020018281038252602c815260200180612a8e602c913960400191505060405180910390fd5b600061172083610dd7565b90508073ffffffffffffffffffffffffffffffffffffffff168473ffffffffffffffffffffffffffffffffffffffff16148061178f57508373ffffffffffffffffffffffffffffffffffffffff1661177784610aa2565b73ffffffffffffffffffffffffffffffffffffffff16145b806117a0575061179f818561152e565b5b91505092915050565b8273ffffffffffffffffffffffffffffffffffffffff166117c982610dd7565b73ffffffffffffffffffffffffffffffffffffffff1614611835576040517f08c379a0000000000000000000000000000000000000000000000000000000008152600401808060200182810382526029815260200180612bbf6029913960400191505060405180910390fd5b600073ffffffffffffffffffffffffffffffffffffffff168273ffffffffffffffffffffffffffffffffffffffff1614156118bb576040517f08c379a0000000000000000000000000000000000000000000000000000000008152600401808060200182810382526024815260200180612a446024913960400191505060405180910390fd5b6118c6838383611cf5565b6118d16000826115e7565b61192281600160008673ffffffffffffffffffffffffffffffffffffffff1673ffffffffffffffffffffffffffffffffffffffff168152602001908152602001600020611cfa90919063ffffffff16565b5061197481600160008573ffffffffffffffffffffffffffffffffffffffff1673ffffffffffffffffffffffffffffffffffffffff168152602001908152602001600020611d1490919063ffffffff16565b5061198b81836002611d2e9092919063ffffffff16565b50808273ffffffffffffffffffffffffffffffffffffffff168473ffffffffffffffffffffffffffffffffffffffff167fddf252ad1be2c89b69c2b068fc378daa952ba7f163c4a11628f55a4df523b3ef60405160405180910390a4505050565b60006119fb8360000183611d63565b60001c905092915050565b611a20828260405180602001604052806000815250611de6565b5050565b611a2d826115c2565b611a82576040517f08c379a000000000000000000000000000000000000000000000000000000000815260040180806020018281038252602c815260200180612b93602c913960400191505060405180910390fd5b80600860008481526020019081526020016000209080519060200190611aa992919061294a565b505050565b600080600080611ac18660000186611e57565b915091508160001c8160001c8090509350935050509250929050565b6000611af0846000018460001b84611ef0565b60001c90509392505050565b6000611b0a82600001611fe6565b9050919050565b611b1c8484846117a9565b611b2884848484611ff7565b611b7d576040517f08c379a0000000000000000000000000000000000000000000000000000000008152600401808060200182810382526032815260200180612a126032913960400191505060405180910390fd5b50505050565b60606000821415611bcb576040518060400160405280600181526020017f30000000000000000000000000000000000000000000000000000000000000008152509050611cc5565b600082905060005b60008214611bf5578080600101915050600a8281611bed57fe5b049150611bd3565b60608167ffffffffffffffff81118015611c0e57600080fd5b506040519080825280601f01601f191660200182016040528015611c415781602001600182028036833780820191505090505b50905060006001830390508593505b60008414611cbd57600a8481611c6257fe5b0660300160f81b82828060019003935081518110611c7c57fe5b60200101907effffffffffffffffffffffffffffffffffffffffffffffffffffffffffffff1916908160001a905350600a8481611cb557fe5b049350611c50565b819450505050505b919050565b6000611cdc836000018360001b61223c565b905092915050565b600081600001805490509050919050565b505050565b6000611d0c836000018360001b61225f565b905092915050565b6000611d26836000018360001b612347565b905092915050565b6000611d5a846000018460001b8473ffffffffffffffffffffffffffffffffffffffff1660001b6123b7565b90509392505050565b600081836000018054905011611dc4576040517f08c379a00000000000000000000000000000000000000000000000000000000081526004018080602001828103825260228152602001806129f06022913960400191505060405180910390fd5b826000018281548110611dd357fe5b9060005260206000200154905092915050565b611df08383612493565b611dfd6000848484611ff7565b611e52576040517f08c379a0000000000000000000000000000000000000000000000000000000008152600401808060200182810382526032815260200180612a126032913960400191505060405180910390fd5b505050565b60008082846000018054905011611eb9576040517f08c379a0000000000000000000000000000000000000000000000000000000008152600401808060200182810382526022815260200180612b456022913960400191505060405180910390fd5b6000846000018481548110611eca57fe5b906000526020600020906002020190508060000154816001015492509250509250929050565b60008084600101600085815260200190815260200160002054905060008114158390611fb7576040517f08c379a00000000000000000000000000000000000000000000000000000000081526004018080602001828103825283818151815260200191508051906020019080838360005b83811015611f7c578082015181840152602081019050611f61565b50505050905090810190601f168015611fa95780820380516001836020036101000a031916815260200191505b509250505060405180910390fd5b50846000016001820381548110611fca57fe5b9060005260206000209060020201600101549150509392505050565b600081600001805490509050919050565b60006120188473ffffffffffffffffffffffffffffffffffffffff16612687565b6120255760019050612234565b60606121bb63150b7a0260e01b61203a6115df565b888787604051602401808573ffffffffffffffffffffffffffffffffffffffff1673ffffffffffffffffffffffffffffffffffffffff1681526020018473ffffffffffffffffffffffffffffffffffffffff1673ffffffffffffffffffffffffffffffffffffffff16815260200183815260200180602001828103825283818151815260200191508051906020019080838360005b838110156120ea5780820151818401526020810190506120cf565b50505050905090810190601f1680156121175780820380516001836020036101000a031916815260200191505b5095505050505050604051602081830303815290604052907bffffffffffffffffffffffffffffffffffffffffffffffffffffffff19166020820180517bffffffffffffffffffffffffffffffffffffffffffffffffffffffff8381831617835250505050604051806060016040528060328152602001612a12603291398773ffffffffffffffffffffffffffffffffffffffff1661269a9092919063ffffffff16565b905060008180602001905160208110156121d457600080fd5b8101908080519060200190929190505050905063150b7a0260e01b7bffffffffffffffffffffffffffffffffffffffffffffffffffffffff1916817bffffffffffffffffffffffffffffffffffffffffffffffffffffffff191614925050505b949350505050565b600080836001016000848152602001908152602001600020541415905092915050565b6000808360010160008481526020019081526020016000205490506000811461233b57600060018203905060006001866000018054905003905060008660000182815481106122aa57fe5b90600052602060002001549050808760000184815481106122c757fe5b90600052602060002001819055506001830187600101600083815260200190815260200160002081905550866000018054806122ff57fe5b60019003818190600052602060002001600090559055866001016000878152602001908152602001600020600090556001945050505050612341565b60009150505b92915050565b600061235383836126b2565b6123ac5782600001829080600181540180825580915050600190039060005260206000200160009091909190915055826000018054905083600101600084815260200190815260200160002081905550600190506123b1565b600090505b92915050565b600080846001016000858152602001908152602001600020549050600081141561245e5784600001604051806040016040528086815260200185815250908060018154018082558091505060019003906000526020600020906002020160009091909190915060008201518160000155602082015181600101555050846000018054905085600101600086815260200190815260200160002081905550600191505061248c565b8285600001600183038154811061247157fe5b90600052602060002090600202016001018190555060009150505b9392505050565b600073ffffffffffffffffffffffffffffffffffffffff168273ffffffffffffffffffffffffffffffffffffffff161415612536576040517f08c379a00000000000000000000000000000000000000000000000000000000081526004018080602001828103825260208152602001807f4552433732313a206d696e7420746f20746865207a65726f206164647265737381525060200191505060405180910390fd5b61253f816115c2565b156125b2576040517f08c379a000000000000000000000000000000000000000000000000000000000815260040180806020018281038252601c8152602001807f4552433732313a20746f6b656e20616c7265616479206d696e7465640000000081525060200191505060405180910390fd5b6125be60008383611cf5565b61260f81600160008573ffffffffffffffffffffffffffffffffffffffff1673ffffffffffffffffffffffffffffffffffffffff168152602001908152602001600020611d1490919063ffffffff16565b5061262681836002611d2e9092919063ffffffff16565b50808273ffffffffffffffffffffffffffffffffffffffff16600073ffffffffffffffffffffffffffffffffffffffff167fddf252ad1be2c89b69c2b068fc378daa952ba7f163c4a11628f55a4df523b3ef60405160405180910390a45050565b600080823b905060008111915050919050565b60606126a984846000856126d5565b90509392505050565b600080836001016000848152602001908152602001600020541415905092915050565b606082471015612730576040517f08c379a0000000000000000000000000000000000000000000000000000000008152600401808060200182810382526026815260200180612a686026913960400191505060405180910390fd5b61273985612687565b6127ab576040517f08c379a000000000000000000000000000000000000000000000000000000000815260040180806020018281038252601d8152602001807f416464726573733a2063616c6c20746f206e6f6e2d636f6e747261637400000081525060200191505060405180910390fd5b600060608673ffffffffffffffffffffffffffffffffffffffff1685876040518082805190602001908083835b602083106127fb57805182526020820191506020810190506020830392506127d8565b6001836020036101000a03801982511681845116808217855250505050505090500191505060006040518083038185875af1925050503d806000811461285d576040519150601f19603f3d011682016040523d82523d6000602084013e612862565b606091505b509150915061287282828661287e565b92505050949350505050565b6060831561288e57829050612943565b6000835111156128a15782518084602001fd5b816040517f08c379a00000000000000000000000000000000000000000000000000000000081526004018080602001828103825283818151815260200191508051906020019080838360005b838110156129085780820151818401526020810190506128ed565b50505050905090810190601f1680156129355780820380516001836020036101000a031916815260200191505b509250505060405180910390fd5b9392505050565b828054600181600116156101000203166002900490600052602060002090601f016020900481019282601f1061298b57805160ff19168380011785556129b9565b828001600101855582156129b9579182015b828111156129b857825182559160200191906001019061299d565b5b5090506129c691906129ca565b5090565b6129ec91905b808211156129e85760008160009055506001016129d0565b5090565b9056fe456e756d657261626c655365743a20696e646578206f7574206f6620626f756e64734552433732313a207472616e7366657220746f206e6f6e20455243373231526563656976657220696d706c656d656e7465724552433732313a207472616e7366657220746f20746865207a65726f2061646472657373416464726573733a20696e73756666696369656e742062616c616e636520666f722063616c6c4552433732313a206f70657261746f7220717565727920666f72206e6f6e6578697374656e7420746f6b656e4552433732313a20617070726f76652063616c6c6572206973206e6f74206f776e6572206e6f7220617070726f76656420666f7220616c6c4552433732313a2062616c616e636520717565727920666f7220746865207a65726f20616464726573734552433732313a206f776e657220717565727920666f72206e6f6e6578697374656e7420746f6b656e456e756d657261626c654d61703a20696e646578206f7574206f6620626f756e64734552433732313a20617070726f76656420717565727920666f72206e6f6e6578697374656e7420746f6b656e4552433732314d657461646174613a2055524920736574206f66206e6f6e6578697374656e7420746f6b656e4552433732313a207472616e73666572206f6620746f6b656e2074686174206973206e6f74206f776e4552433732314d657461646174613a2055524920717565727920666f72206e6f6e6578697374656e7420746f6b656e4552433732313a20617070726f76616c20746f2063757272656e74206f776e65724552433732313a207472616e736665722063616c6c6572206973206e6f74206f776e6572206e6f7220617070726f766564a2646970667358221220c7bb26f55ae777da59ccfe6a948d74974ab2e392fff36026b927a9dc6da2b30b64736f6c63430006060033",
  "immutableReferences": {},
  "source": "pragma solidity 0.6.6;\n\nimport \"@openzeppelin/contracts/token/ERC721/ERC721.sol\";\n\ncontract DrawingCollectible is ERC721 {\n    uint256 public tokenCounter;\n\n    constructor() public ERC721(\"HexagonalNFT\", \"HEXNFT\") {\n        tokenCounter = 0;\n    }\n\n    function createCollectible(string memory tokenURI)\n        public\n        returns (uint256)\n    {\n        uint256 newItemId = tokenCounter;\n        _safeMint(msg.sender, newItemId);\n        _setTokenURI(newItemId, tokenURI);\n        tokenCounter = tokenCounter + 1;\n        return newItemId;\n    }\n}\n",
  "sourcePath": "E:\\projects\\nft\\twitter_nft\\contracts\\DrawingCollectible.sol",
  "compiler": {
    "name": "solc",
    "version": "0.6.6+commit.6c089d02.Emscripten.clang"
  },
  "schemaVersion": "3.4.3",
  "updatedAt": "2022-01-25T20:26:00.267Z",
  "networkType": "ethereum",
  "devdoc": {
    "methods": {
      "approve(address,uint256)": {
        "details": "See {IERC721-approve}."
      },
      "balanceOf(address)": {
        "details": "See {IERC721-balanceOf}."
      },
      "baseURI()": {
        "details": "Returns the base URI set via {_setBaseURI}. This will be automatically added as a prefix in {tokenURI} to each token's URI, or to the token ID if no specific URI is set for that token ID."
      },
      "getApproved(uint256)": {
        "details": "See {IERC721-getApproved}."
      },
      "isApprovedForAll(address,address)": {
        "details": "See {IERC721-isApprovedForAll}."
      },
      "name()": {
        "details": "See {IERC721Metadata-name}."
      },
      "ownerOf(uint256)": {
        "details": "See {IERC721-ownerOf}."
      },
      "safeTransferFrom(address,address,uint256)": {
        "details": "See {IERC721-safeTransferFrom}."
      },
      "safeTransferFrom(address,address,uint256,bytes)": {
        "details": "See {IERC721-safeTransferFrom}."
      },
      "setApprovalForAll(address,bool)": {
        "details": "See {IERC721-setApprovalForAll}."
      },
      "supportsInterface(bytes4)": {
        "details": "See {IERC165-supportsInterface}.     * Time complexity O(1), guaranteed to always use less than 30 000 gas."
      },
      "symbol()": {
        "details": "See {IERC721Metadata-symbol}."
      },
      "tokenByIndex(uint256)": {
        "details": "See {IERC721Enumerable-tokenByIndex}."
      },
      "tokenOfOwnerByIndex(address,uint256)": {
        "details": "See {IERC721Enumerable-tokenOfOwnerByIndex}."
      },
      "tokenURI(uint256)": {
        "details": "See {IERC721Metadata-tokenURI}."
      },
      "totalSupply()": {
        "details": "See {IERC721Enumerable-totalSupply}."
      },
      "transferFrom(address,address,uint256)": {
        "details": "See {IERC721-transferFrom}."
      }
    }
  },
  "userdoc": {
    "methods": {}
  }
}